{
  "contractName": "optimized_healthCare",
  "abi": [
    {
      "inputs": [],
      "payable": false,
      "stateMutability": "nonpayable",
      "type": "constructor"
    },
    {
      "constant": false,
      "inputs": [
        {
          "internalType": "string",
          "name": "_name",
          "type": "string"
        },
        {
          "internalType": "string",
          "name": "_fatherName",
          "type": "string"
        },
        {
          "internalType": "uint8",
          "name": "_age",
          "type": "uint8"
        },
        {
          "internalType": "string",
          "name": "_patAddress",
          "type": "string"
        },
        {
          "internalType": "uint32",
          "name": "_cnic",
          "type": "uint32"
        },
        {
          "internalType": "string",
          "name": "_sex",
          "type": "string"
        }
      ],
      "name": "signupPatient",
      "outputs": [],
      "payable": false,
      "stateMutability": "nonpayable",
      "type": "function"
    },
    {
      "constant": false,
      "inputs": [
        {
          "internalType": "string",
          "name": "_name",
          "type": "string"
        },
        {
          "internalType": "string",
          "name": "_fatherName",
          "type": "string"
        },
        {
          "internalType": "uint8",
          "name": "_age",
          "type": "uint8"
        },
        {
          "internalType": "string",
          "name": "_docAddr",
          "type": "string"
        },
        {
          "internalType": "uint32",
          "name": "_cnic",
          "type": "uint32"
        },
        {
          "internalType": "string",
          "name": "_sex",
          "type": "string"
        },
        {
          "internalType": "string",
          "name": "_qualification",
          "type": "string"
        }
      ],
      "name": "signupDoctor",
      "outputs": [],
      "payable": false,
      "stateMutability": "nonpayable",
      "type": "function"
    },
    {
      "constant": false,
      "inputs": [
        {
          "internalType": "address",
          "name": "doctor_id",
          "type": "address"
        }
      ],
      "name": "grantAccessToDoctor",
      "outputs": [],
      "payable": false,
      "stateMutability": "nonpayable",
      "type": "function"
    },
    {
      "constant": false,
      "inputs": [
        {
          "internalType": "string",
          "name": "_file_name",
          "type": "string"
        },
        {
          "internalType": "string",
          "name": "_file_type",
          "type": "string"
        },
        {
          "internalType": "bytes32",
          "name": "_fileHash",
          "type": "bytes32"
        },
        {
          "internalType": "string",
          "name": "_file_secret",
          "type": "string"
        }
      ],
      "name": "addFile",
      "outputs": [],
      "payable": false,
      "stateMutability": "nonpayable",
      "type": "function"
    },
    {
      "constant": false,
      "inputs": [
        {
          "internalType": "string",
          "name": "_file_name",
          "type": "string"
        },
        {
          "internalType": "string",
          "name": "_file_type",
          "type": "string"
        },
        {
          "internalType": "string",
          "name": "_file_hash",
          "type": "string"
        }
      ],
      "name": "addUserFiles",
      "outputs": [],
      "payable": false,
      "stateMutability": "nonpayable",
      "type": "function"
    },
    {
      "constant": true,
      "inputs": [
        {
          "internalType": "address",
          "name": "sender",
          "type": "address"
        }
      ],
      "name": "getUserFiles",
      "outputs": [
        {
          "components": [
            {
              "internalType": "string",
              "name": "file_name",
              "type": "string"
            },
            {
              "internalType": "string",
              "name": "file_type",
              "type": "string"
            },
            {
              "internalType": "string",
              "name": "file_hash",
              "type": "string"
            }
          ],
          "internalType": "struct optimized_healthCare.files[]",
          "name": "",
          "type": "tuple[]"
        }
      ],
      "payable": false,
      "stateMutability": "view",
      "type": "function"
    },
    {
      "constant": true,
      "inputs": [],
      "name": "getPatientInfo",
      "outputs": [
        {
          "internalType": "string",
          "name": "",
          "type": "string"
        },
        {
          "internalType": "string",
          "name": "",
          "type": "string"
        },
        {
          "internalType": "uint8",
          "name": "",
          "type": "uint8"
        },
        {
          "internalType": "string",
          "name": "",
          "type": "string"
        },
        {
          "internalType": "uint32",
          "name": "",
          "type": "uint32"
        },
        {
          "internalType": "string",
          "name": "",
          "type": "string"
        },
        {
          "internalType": "address",
          "name": "",
          "type": "address"
        },
        {
          "internalType": "bytes32[]",
          "name": "",
          "type": "bytes32[]"
        },
        {
          "internalType": "address[]",
          "name": "",
          "type": "address[]"
        }
      ],
      "payable": false,
      "stateMutability": "view",
      "type": "function"
    },
    {
      "constant": true,
      "inputs": [],
      "name": "getDoctorInfo",
      "outputs": [
        {
          "internalType": "string",
          "name": "",
          "type": "string"
        },
        {
          "internalType": "string",
          "name": "",
          "type": "string"
        },
        {
          "internalType": "uint8",
          "name": "",
          "type": "uint8"
        },
        {
          "internalType": "string",
          "name": "",
          "type": "string"
        },
        {
          "internalType": "uint32",
          "name": "",
          "type": "uint32"
        },
        {
          "internalType": "string",
          "name": "",
          "type": "string"
        },
        {
          "internalType": "string",
          "name": "",
          "type": "string"
        },
        {
          "internalType": "address",
          "name": "",
          "type": "address"
        },
        {
          "internalType": "address[]",
          "name": "",
          "type": "address[]"
        }
      ],
      "payable": false,
      "stateMutability": "view",
      "type": "function"
    },
    {
      "constant": true,
      "inputs": [
        {
          "internalType": "address",
          "name": "_user",
          "type": "address"
        }
      ],
      "name": "checkProfile",
      "outputs": [
        {
          "internalType": "string",
          "name": "",
          "type": "string"
        },
        {
          "internalType": "string",
          "name": "",
          "type": "string"
        }
      ],
      "payable": false,
      "stateMutability": "view",
      "type": "function"
    },
    {
      "constant": true,
      "inputs": [
        {
          "internalType": "address",
          "name": "pat",
          "type": "address"
        }
      ],
      "name": "getPatientInfoForDoctor",
      "outputs": [
        {
          "internalType": "string",
          "name": "",
          "type": "string"
        },
        {
          "internalType": "uint8",
          "name": "",
          "type": "uint8"
        },
        {
          "internalType": "address",
          "name": "",
          "type": "address"
        },
        {
          "components": [
            {
              "internalType": "string",
              "name": "file_name",
              "type": "string"
            },
            {
              "internalType": "string",
              "name": "file_type",
              "type": "string"
            },
            {
              "internalType": "string",
              "name": "file_hash",
              "type": "string"
            }
          ],
          "internalType": "struct optimized_healthCare.files[]",
          "name": "",
          "type": "tuple[]"
        }
      ],
      "payable": false,
      "stateMutability": "view",
      "type": "function"
    },
    {
      "constant": true,
      "inputs": [
        {
          "internalType": "bytes32",
          "name": "fileHashId",
          "type": "bytes32"
        },
        {
          "internalType": "string",
          "name": "role",
          "type": "string"
        },
        {
          "internalType": "address",
          "name": "id",
          "type": "address"
        },
        {
          "internalType": "address",
          "name": "pat",
          "type": "address"
        }
      ],
      "name": "getFileSecret",
      "outputs": [
        {
          "internalType": "string",
          "name": "",
          "type": "string"
        }
      ],
      "payable": false,
      "stateMutability": "view",
      "type": "function"
    },
    {
      "constant": true,
      "inputs": [
        {
          "internalType": "address",
          "name": "doc",
          "type": "address"
        },
        {
          "internalType": "address",
          "name": "pat",
          "type": "address"
        },
        {
          "internalType": "bytes32",
          "name": "fileHashId",
          "type": "bytes32"
        }
      ],
      "name": "getFileInfoDoctor",
      "outputs": [
        {
          "internalType": "string",
          "name": "",
          "type": "string"
        },
        {
          "internalType": "string",
          "name": "",
          "type": "string"
        }
      ],
      "payable": false,
      "stateMutability": "view",
      "type": "function"
    },
    {
      "constant": true,
      "inputs": [
        {
          "internalType": "address",
          "name": "pat",
          "type": "address"
        },
        {
          "internalType": "bytes32",
          "name": "fileHashId",
          "type": "bytes32"
        }
      ],
      "name": "getFileInfoPatient",
      "outputs": [
        {
          "internalType": "string",
          "name": "",
          "type": "string"
        },
        {
          "internalType": "string",
          "name": "",
          "type": "string"
        }
      ],
      "payable": false,
      "stateMutability": "view",
      "type": "function"
    }
  ],
  "bytecode": "0x608060405234801561001057600080fd5b50336000806101000a81548173ffffffffffffffffffffffffffffffffffffffff021916908373ffffffffffffffffffffffffffffffffffffffff16021790555061567a80620000616000396000f3fe608060405234801561001057600080fd5b50600436106100cf5760003560e01c80637f34cf941161008c578063b259832d11610066578063b259832d14610218578063b380f5c614610249578063cf954d451461026f578063fe59cc1a1461029f576100cf565b80637f34cf94146101af5780639f6a7a11146101e0578063aaa10f47146101fc576100cf565b806301d99258146100d45780631c8e251c146101055780631fc37922146101215780632ae48e4014610151578063326df6641461016d57806361e04f6f14610193575b600080fd5b6100ee60048036036100e9919081019061498b565b6102d2565b6040516100fc9291906151f0565b60405180910390f35b61011f600480360361011a919081019061498b565b610d60565b005b61013b6004803603610136919081019061498b565b611116565b60405161014891906151ac565b60405180910390f35b61016b60048036036101669190810190614b65565b61139a565b005b61017561151b565b60405161018a99989796959493929190615227565b60405180910390f35b6101ad60048036036101a89190810190614bfc565b611a82565b005b6101c960048036036101c491908101906149b4565b6121c9565b6040516101d79291906151f0565b60405180910390f35b6101fa60048036036101f59190810190614aba565b6125a1565b005b61021660048036036102119190810190614ce5565b612800565b005b610232600480360361022d9190810190614a03565b612f43565b6040516102409291906151f0565b60405180910390f35b61025161327d565b604051610266999897969594939291906152de565b60405180910390f35b61028960048036036102849190810190614a3f565b61382e565b60405161029691906151ce565b60405180910390f35b6102b960048036036102b4919081019061498b565b613af4565b6040516102c99493929190615395565b60405180910390f35b6060806000809054906101000a900473ffffffffffffffffffffffffffffffffffffffff1673ffffffffffffffffffffffffffffffffffffffff163373ffffffffffffffffffffffffffffffffffffffff161461032e57600080fd5b610336614608565b600360008573ffffffffffffffffffffffffffffffffffffffff1673ffffffffffffffffffffffffffffffffffffffff16815260200190815260200160002060405180610120016040529081600082018054600181600116156101000203166002900480601f01602080910402602001604051908101604052809291908181526020018280546001816001161561010002031660029004801561041a5780601f106103ef5761010080835404028352916020019161041a565b820191906000526020600020905b8154815290600101906020018083116103fd57829003601f168201915b50505050508152602001600182018054600181600116156101000203166002900480601f0160208091040260200160405190810160405280929190818152602001828054600181600116156101000203166002900480156104bc5780601f10610491576101008083540402835291602001916104bc565b820191906000526020600020905b81548152906001019060200180831161049f57829003601f168201915b505050505081526020016002820160009054906101000a900460ff1660ff1660ff168152602001600382018054600181600116156101000203166002900480601f01602080910402602001604051908101604052809291908181526020018280546001816001161561010002031660029004801561057b5780601f106105505761010080835404028352916020019161057b565b820191906000526020600020905b81548152906001019060200180831161055e57829003601f168201915b505050505081526020016004820160009054906101000a900463ffffffff1663ffffffff1663ffffffff168152602001600582018054600181600116156101000203166002900480601f0160208091040260200160405190810160405280929190818152602001828054600181600116156101000203166002900480156106435780601f1061061857610100808354040283529160200191610643565b820191906000526020600020905b81548152906001019060200180831161062657829003601f168201915b505050505081526020016006820160009054906101000a900473ffffffffffffffffffffffffffffffffffffffff1673ffffffffffffffffffffffffffffffffffffffff1673ffffffffffffffffffffffffffffffffffffffff168152602001600782018054806020026020016040519081016040528092919081815260200182805480156106f157602002820191906000526020600020905b8154815260200190600101908083116106dd575b505050505081526020016008820180548060200260200160405190810160405280929190818152602001828054801561077f57602002820191906000526020600020905b8160009054906101000a900473ffffffffffffffffffffffffffffffffffffffff1673ffffffffffffffffffffffffffffffffffffffff1681526020019060010190808311610735575b5050505050815250509050610792614673565b600160008673ffffffffffffffffffffffffffffffffffffffff1673ffffffffffffffffffffffffffffffffffffffff16815260200190815260200160002060405180610120016040529081600082018054600181600116156101000203166002900480601f0160208091040260200160405190810160405280929190818152602001828054600181600116156101000203166002900480156108765780601f1061084b57610100808354040283529160200191610876565b820191906000526020600020905b81548152906001019060200180831161085957829003601f168201915b50505050508152602001600182018054600181600116156101000203166002900480601f0160208091040260200160405190810160405280929190818152602001828054600181600116156101000203166002900480156109185780601f106108ed57610100808354040283529160200191610918565b820191906000526020600020905b8154815290600101906020018083116108fb57829003601f168201915b505050505081526020016002820160009054906101000a900460ff1660ff1660ff168152602001600382018054600181600116156101000203166002900480601f0160208091040260200160405190810160405280929190818152602001828054600181600116156101000203166002900480156109d75780601f106109ac576101008083540402835291602001916109d7565b820191906000526020600020905b8154815290600101906020018083116109ba57829003601f168201915b505050505081526020016004820160009054906101000a900463ffffffff1663ffffffff1663ffffffff168152602001600582018054600181600116156101000203166002900480601f016020809104026020016040519081016040528092919081815260200182805460018160011615610100020316600290048015610a9f5780601f10610a7457610100808354040283529160200191610a9f565b820191906000526020600020905b815481529060010190602001808311610a8257829003601f168201915b50505050508152602001600682018054600181600116156101000203166002900480601f016020809104026020016040519081016040528092919081815260200182805460018160011615610100020316600290048015610b415780601f10610b1657610100808354040283529160200191610b41565b820191906000526020600020905b815481529060010190602001808311610b2457829003601f168201915b505050505081526020016007820160009054906101000a900473ffffffffffffffffffffffffffffffffffffffff1673ffffffffffffffffffffffffffffffffffffffff1673ffffffffffffffffffffffffffffffffffffffff16815260200160088201805480602002602001604051908101604052809291908181526020018280548015610c2557602002820191906000526020600020905b8160009054906101000a900473ffffffffffffffffffffffffffffffffffffffff1673ffffffffffffffffffffffffffffffffffffffff1681526020019060010190808311610bdb575b5050505050815250509050600073ffffffffffffffffffffffffffffffffffffffff168260c0015173ffffffffffffffffffffffffffffffffffffffff161115610cb25781600001518090506040518060400160405280600781526020017f70617469656e7400000000000000000000000000000000000000000000000000815250935093505050610d5b565b600073ffffffffffffffffffffffffffffffffffffffff168160e0015173ffffffffffffffffffffffffffffffffffffffff161115610d345780600001518090506040518060400160405280600681526020017f646f63746f720000000000000000000000000000000000000000000000000000815250935093505050610d5b565b60405180602001604052806000815250604051806020016040528060008152509350935050505b915091565b33600073ffffffffffffffffffffffffffffffffffffffff16600360008373ffffffffffffffffffffffffffffffffffffffff1673ffffffffffffffffffffffffffffffffffffffff16815260200190815260200160002060060160009054906101000a900473ffffffffffffffffffffffffffffffffffffffff1673ffffffffffffffffffffffffffffffffffffffff1611610dfc57600080fd5b81600073ffffffffffffffffffffffffffffffffffffffff16600160008373ffffffffffffffffffffffffffffffffffffffff1673ffffffffffffffffffffffffffffffffffffffff16815260200190815260200160002060070160009054906101000a900473ffffffffffffffffffffffffffffffffffffffff1673ffffffffffffffffffffffffffffffffffffffff1611610e9857600080fd5b6000600360003373ffffffffffffffffffffffffffffffffffffffff1673ffffffffffffffffffffffffffffffffffffffff16815260200190815260200160002090506000600160008673ffffffffffffffffffffffffffffffffffffffff1673ffffffffffffffffffffffffffffffffffffffff16815260200190815260200160002090506001600460003373ffffffffffffffffffffffffffffffffffffffff1673ffffffffffffffffffffffffffffffffffffffff16815260200190815260200160002060008773ffffffffffffffffffffffffffffffffffffffff1673ffffffffffffffffffffffffffffffffffffffff1681526020019081526020016000205410610fa757600080fd5b816008018590806001815401808255809150509060018203906000526020600020016000909192909190916101000a81548173ffffffffffffffffffffffffffffffffffffffff021916908373ffffffffffffffffffffffffffffffffffffffff160217905550506000600183600801805490500390508060088190555080600460003373ffffffffffffffffffffffffffffffffffffffff1673ffffffffffffffffffffffffffffffffffffffff16815260200190815260200160002060008873ffffffffffffffffffffffffffffffffffffffff1673ffffffffffffffffffffffffffffffffffffffff16815260200190815260200160002081905550816008013390806001815401808255809150509060018203906000526020600020016000909192909190916101000a81548173ffffffffffffffffffffffffffffffffffffffff021916908373ffffffffffffffffffffffffffffffffffffffff16021790555050505050505050565b6060600760008373ffffffffffffffffffffffffffffffffffffffff1673ffffffffffffffffffffffffffffffffffffffff168152602001908152602001600020805480602002602001604051908101604052809291908181526020016000905b8282101561138f5783829060005260206000209060030201604051806060016040529081600082018054600181600116156101000203166002900480601f0160208091040260200160405190810160405280929190818152602001828054600181600116156101000203166002900480156112335780601f1061120857610100808354040283529160200191611233565b820191906000526020600020905b81548152906001019060200180831161121657829003601f168201915b50505050508152602001600182018054600181600116156101000203166002900480601f0160208091040260200160405190810160405280929190818152602001828054600181600116156101000203166002900480156112d55780601f106112aa576101008083540402835291602001916112d5565b820191906000526020600020905b8154815290600101906020018083116112b857829003601f168201915b50505050508152602001600282018054600181600116156101000203166002900480601f0160208091040260200160405190810160405280929190818152602001828054600181600116156101000203166002900480156113775780601f1061134c57610100808354040283529160200191611377565b820191906000526020600020905b81548152906001019060200180831161135a57829003601f168201915b50505050508152505081526020019060010190611177565b505050509050919050565b33600073ffffffffffffffffffffffffffffffffffffffff16600360008373ffffffffffffffffffffffffffffffffffffffff1673ffffffffffffffffffffffffffffffffffffffff16815260200190815260200160002060060160009054906101000a900473ffffffffffffffffffffffffffffffffffffffff1673ffffffffffffffffffffffffffffffffffffffff161161143657600080fd5b600760003373ffffffffffffffffffffffffffffffffffffffff1673ffffffffffffffffffffffffffffffffffffffff1681526020019081526020016000206040518060600160405280868152602001858152602001848152509080600181540180825580915050906001820390600052602060002090600302016000909192909190915060008201518160000190805190602001906114d79291906146de565b5060208201518160010190805190602001906114f49291906146de565b5060408201518160020190805190602001906115119291906146de565b5050505050505050565b6060806000606060006060600060608033600073ffffffffffffffffffffffffffffffffffffffff16600360008373ffffffffffffffffffffffffffffffffffffffff1673ffffffffffffffffffffffffffffffffffffffff16815260200190815260200160002060060160009054906101000a900473ffffffffffffffffffffffffffffffffffffffff1673ffffffffffffffffffffffffffffffffffffffff16116115c757600080fd5b6115cf614608565b600360003373ffffffffffffffffffffffffffffffffffffffff1673ffffffffffffffffffffffffffffffffffffffff16815260200190815260200160002060405180610120016040529081600082018054600181600116156101000203166002900480601f0160208091040260200160405190810160405280929190818152602001828054600181600116156101000203166002900480156116b35780601f10611688576101008083540402835291602001916116b3565b820191906000526020600020905b81548152906001019060200180831161169657829003601f168201915b50505050508152602001600182018054600181600116156101000203166002900480601f0160208091040260200160405190810160405280929190818152602001828054600181600116156101000203166002900480156117555780601f1061172a57610100808354040283529160200191611755565b820191906000526020600020905b81548152906001019060200180831161173857829003601f168201915b505050505081526020016002820160009054906101000a900460ff1660ff1660ff168152602001600382018054600181600116156101000203166002900480601f0160208091040260200160405190810160405280929190818152602001828054600181600116156101000203166002900480156118145780601f106117e957610100808354040283529160200191611814565b820191906000526020600020905b8154815290600101906020018083116117f757829003601f168201915b505050505081526020016004820160009054906101000a900463ffffffff1663ffffffff1663ffffffff168152602001600582018054600181600116156101000203166002900480601f0160208091040260200160405190810160405280929190818152602001828054600181600116156101000203166002900480156118dc5780601f106118b1576101008083540402835291602001916118dc565b820191906000526020600020905b8154815290600101906020018083116118bf57829003601f168201915b505050505081526020016006820160009054906101000a900473ffffffffffffffffffffffffffffffffffffffff1673ffffffffffffffffffffffffffffffffffffffff1673ffffffffffffffffffffffffffffffffffffffff1681526020016007820180548060200260200160405190810160405280929190818152602001828054801561198a57602002820191906000526020600020905b815481526020019060010190808311611976575b5050505050815260200160088201805480602002602001604051908101604052809291908181526020018280548015611a1857602002820191906000526020600020905b8160009054906101000a900473ffffffffffffffffffffffffffffffffffffffff1673ffffffffffffffffffffffffffffffffffffffff16815260200190600101908083116119ce575b5050505050815250509050806000015181602001518260400151836060015184608001518560a001518660c001518760e001518861010001518898508797508595508393508191508090509a509a509a509a509a509a509a509a509a505050909192939495969798565b611a8a614608565b600360003373ffffffffffffffffffffffffffffffffffffffff1673ffffffffffffffffffffffffffffffffffffffff16815260200190815260200160002060405180610120016040529081600082018054600181600116156101000203166002900480601f016020809104026020016040519081016040528092919081815260200182805460018160011615610100020316600290048015611b6e5780601f10611b4357610100808354040283529160200191611b6e565b820191906000526020600020905b815481529060010190602001808311611b5157829003601f168201915b50505050508152602001600182018054600181600116156101000203166002900480601f016020809104026020016040519081016040528092919081815260200182805460018160011615610100020316600290048015611c105780601f10611be557610100808354040283529160200191611c10565b820191906000526020600020905b815481529060010190602001808311611bf357829003601f168201915b505050505081526020016002820160009054906101000a900460ff1660ff1660ff168152602001600382018054600181600116156101000203166002900480601f016020809104026020016040519081016040528092919081815260200182805460018160011615610100020316600290048015611ccf5780601f10611ca457610100808354040283529160200191611ccf565b820191906000526020600020905b815481529060010190602001808311611cb257829003601f168201915b505050505081526020016004820160009054906101000a900463ffffffff1663ffffffff1663ffffffff168152602001600582018054600181600116156101000203166002900480601f016020809104026020016040519081016040528092919081815260200182805460018160011615610100020316600290048015611d975780601f10611d6c57610100808354040283529160200191611d97565b820191906000526020600020905b815481529060010190602001808311611d7a57829003601f168201915b505050505081526020016006820160009054906101000a900473ffffffffffffffffffffffffffffffffffffffff1673ffffffffffffffffffffffffffffffffffffffff1673ffffffffffffffffffffffffffffffffffffffff16815260200160078201805480602002602001604051908101604052809291908181526020018280548015611e4557602002820191906000526020600020905b815481526020019060010190808311611e31575b5050505050815260200160088201805480602002602001604051908101604052809291908181526020018280548015611ed357602002820191906000526020600020905b8160009054906101000a900473ffffffffffffffffffffffffffffffffffffffff1673ffffffffffffffffffffffffffffffffffffffff1681526020019060010190808311611e89575b5050505050815250509050604051611eea9061516d565b604051809103902087604051602001611f039190615156565b604051602081830303815290604052805190602001201415611f2457600080fd5b60008560ff16118015611f3a575060648560ff16105b611f4357600080fd5b600073ffffffffffffffffffffffffffffffffffffffff168160c0015173ffffffffffffffffffffffffffffffffffffffff161115611f8157600080fd5b6040518061012001604052808881526020018781526020018660ff1681526020018581526020018463ffffffff1681526020018381526020013373ffffffffffffffffffffffffffffffffffffffff16815260200160006040519080825280602002602001820160405280156120065781602001602082028038833980820191505090505b508152602001600060405190808252806020026020018201604052801561203c5781602001602082028038833980820191505090505b50815250600360003373ffffffffffffffffffffffffffffffffffffffff1673ffffffffffffffffffffffffffffffffffffffff168152602001908152602001600020600082015181600001908051906020019061209b9291906146de565b5060208201518160010190805190602001906120b89291906146de565b5060408201518160020160006101000a81548160ff021916908360ff16021790555060608201518160030190805190602001906120f69291906146de565b5060808201518160040160006101000a81548163ffffffff021916908363ffffffff16021790555060a082015181600501908051906020019061213a9291906146de565b5060c08201518160060160006101000a81548173ffffffffffffffffffffffffffffffffffffffff021916908373ffffffffffffffffffffffffffffffffffffffff16021790555060e082015181600701908051906020019061219e92919061475e565b506101008201518160080190805190602001906121bc9291906147ab565b5090505050505050505050565b6060806000809054906101000a900473ffffffffffffffffffffffffffffffffffffffff1673ffffffffffffffffffffffffffffffffffffffff163373ffffffffffffffffffffffffffffffffffffffff161461222557600080fd5b83600073ffffffffffffffffffffffffffffffffffffffff16600360008373ffffffffffffffffffffffffffffffffffffffff1673ffffffffffffffffffffffffffffffffffffffff16815260200190815260200160002060060160009054906101000a900473ffffffffffffffffffffffffffffffffffffffff1673ffffffffffffffffffffffffffffffffffffffff16116122c157600080fd5b85600073ffffffffffffffffffffffffffffffffffffffff16600160008373ffffffffffffffffffffffffffffffffffffffff1673ffffffffffffffffffffffffffffffffffffffff16815260200190815260200160002060070160009054906101000a900473ffffffffffffffffffffffffffffffffffffffff1673ffffffffffffffffffffffffffffffffffffffff161161235d57600080fd5b6040518060400160405280600681526020017f646f63746f72000000000000000000000000000000000000000000000000000081525087868860006040516123a490615197565b6040518091039020856040516020016123bd9190615156565b6040516020818303038152906040528051906020012014156124c7576000600460008473ffffffffffffffffffffffffffffffffffffffff1673ffffffffffffffffffffffffffffffffffffffff16815260200190815260200160002060008673ffffffffffffffffffffffffffffffffffffffff1673ffffffffffffffffffffffffffffffffffffffff168152602001908152602001600020541161246257600080fd5b600660008373ffffffffffffffffffffffffffffffffffffffff1673ffffffffffffffffffffffffffffffffffffffff1681526020019081526020016000206000848152602001908152602001600020549050600081116124c257600080fd5b61256a565b6040516124d390615182565b6040518091039020856040516020016124ec9190615156565b60405160208183030381529060405280519060200120141561256957600660008573ffffffffffffffffffffffffffffffffffffffff1673ffffffffffffffffffffffffffffffffffffffff16815260200190815260200160002060008481526020019081526020016000205490506000811161256857600080fd5b5b5b612572614835565b61257b8b614331565b905080600001518160200151819150809050995099505050505050505050935093915050565b33600073ffffffffffffffffffffffffffffffffffffffff16600360008373ffffffffffffffffffffffffffffffffffffffff1673ffffffffffffffffffffffffffffffffffffffff16815260200190815260200160002060060160009054906101000a900473ffffffffffffffffffffffffffffffffffffffff1673ffffffffffffffffffffffffffffffffffffffff161161263d57600080fd5b6000600360003373ffffffffffffffffffffffffffffffffffffffff1673ffffffffffffffffffffffffffffffffffffffff16815260200190815260200160002090506001600660003373ffffffffffffffffffffffffffffffffffffffff1673ffffffffffffffffffffffffffffffffffffffff168152602001908152602001600020600086815260200190815260200160002054106126dd57600080fd5b6040518060600160405280878152602001868152602001848152506005600086815260200190815260200160002060008201518160000190805190602001906127279291906146de565b5060208201518160010190805190602001906127449291906146de565b5060408201518160020190805190602001906127619291906146de565b509050508060070184908060018154018082558091505090600182039060005260206000200160009091929091909150555060006001826007018054905003905080600660003373ffffffffffffffffffffffffffffffffffffffff1673ffffffffffffffffffffffffffffffffffffffff16815260200190815260200160002060008781526020019081526020016000208190555050505050505050565b612808614673565b600160003373ffffffffffffffffffffffffffffffffffffffff1673ffffffffffffffffffffffffffffffffffffffff16815260200190815260200160002060405180610120016040529081600082018054600181600116156101000203166002900480601f0160208091040260200160405190810160405280929190818152602001828054600181600116156101000203166002900480156128ec5780601f106128c1576101008083540402835291602001916128ec565b820191906000526020600020905b8154815290600101906020018083116128cf57829003601f168201915b50505050508152602001600182018054600181600116156101000203166002900480601f01602080910402602001604051908101604052809291908181526020018280546001816001161561010002031660029004801561298e5780601f106129635761010080835404028352916020019161298e565b820191906000526020600020905b81548152906001019060200180831161297157829003601f168201915b505050505081526020016002820160009054906101000a900460ff1660ff1660ff168152602001600382018054600181600116156101000203166002900480601f016020809104026020016040519081016040528092919081815260200182805460018160011615610100020316600290048015612a4d5780601f10612a2257610100808354040283529160200191612a4d565b820191906000526020600020905b815481529060010190602001808311612a3057829003601f168201915b505050505081526020016004820160009054906101000a900463ffffffff1663ffffffff1663ffffffff168152602001600582018054600181600116156101000203166002900480601f016020809104026020016040519081016040528092919081815260200182805460018160011615610100020316600290048015612b155780601f10612aea57610100808354040283529160200191612b15565b820191906000526020600020905b815481529060010190602001808311612af857829003601f168201915b50505050508152602001600682018054600181600116156101000203166002900480601f016020809104026020016040519081016040528092919081815260200182805460018160011615610100020316600290048015612bb75780601f10612b8c57610100808354040283529160200191612bb7565b820191906000526020600020905b815481529060010190602001808311612b9a57829003601f168201915b505050505081526020016007820160009054906101000a900473ffffffffffffffffffffffffffffffffffffffff1673ffffffffffffffffffffffffffffffffffffffff1673ffffffffffffffffffffffffffffffffffffffff16815260200160088201805480602002602001604051908101604052809291908181526020018280548015612c9b57602002820191906000526020600020905b8160009054906101000a900473ffffffffffffffffffffffffffffffffffffffff1673ffffffffffffffffffffffffffffffffffffffff1681526020019060010190808311612c51575b5050505050815250509050604051612cb29061516d565b604051809103902088604051602001612ccb9190615156565b604051602081830303815290604052805190602001201415612cec57600080fd5b600073ffffffffffffffffffffffffffffffffffffffff168160e0015173ffffffffffffffffffffffffffffffffffffffff161115612d2a57600080fd5b6040518061012001604052808981526020018881526020018760ff1681526020018681526020018563ffffffff1681526020018481526020018381526020013373ffffffffffffffffffffffffffffffffffffffff1681526020016000604051908082528060200260200182016040528015612db55781602001602082028038833980820191505090505b50815250600160003373ffffffffffffffffffffffffffffffffffffffff1673ffffffffffffffffffffffffffffffffffffffff1681526020019081526020016000206000820151816000019080519060200190612e149291906146de565b506020820151816001019080519060200190612e319291906146de565b5060408201518160020160006101000a81548160ff021916908360ff1602179055506060820151816003019080519060200190612e6f9291906146de565b5060808201518160040160006101000a81548163ffffffff021916908363ffffffff16021790555060a0820151816005019080519060200190612eb39291906146de565b5060c0820151816006019080519060200190612ed09291906146de565b5060e08201518160070160006101000a81548173ffffffffffffffffffffffffffffffffffffffff021916908373ffffffffffffffffffffffffffffffffffffffff160217905550610100820151816008019080519060200190612f359291906147ab565b509050505050505050505050565b6060806000809054906101000a900473ffffffffffffffffffffffffffffffffffffffff1673ffffffffffffffffffffffffffffffffffffffff163373ffffffffffffffffffffffffffffffffffffffff1614612f9f57600080fd5b83600073ffffffffffffffffffffffffffffffffffffffff16600360008373ffffffffffffffffffffffffffffffffffffffff1673ffffffffffffffffffffffffffffffffffffffff16815260200190815260200160002060060160009054906101000a900473ffffffffffffffffffffffffffffffffffffffff1673ffffffffffffffffffffffffffffffffffffffff161161303b57600080fd5b6040518060400160405280600781526020017f70617469656e7400000000000000000000000000000000000000000000000000815250858587600060405161308290615197565b60405180910390208560405160200161309b9190615156565b6040516020818303038152906040528051906020012014156131a5576000600460008473ffffffffffffffffffffffffffffffffffffffff1673ffffffffffffffffffffffffffffffffffffffff16815260200190815260200160002060008673ffffffffffffffffffffffffffffffffffffffff1673ffffffffffffffffffffffffffffffffffffffff168152602001908152602001600020541161314057600080fd5b600660008373ffffffffffffffffffffffffffffffffffffffff1673ffffffffffffffffffffffffffffffffffffffff1681526020019081526020016000206000848152602001908152602001600020549050600081116131a057600080fd5b613248565b6040516131b190615182565b6040518091039020856040516020016131ca9190615156565b60405160208183030381529060405280519060200120141561324757600660008573ffffffffffffffffffffffffffffffffffffffff1673ffffffffffffffffffffffffffffffffffffffff16815260200190815260200160002060008481526020019081526020016000205490506000811161324657600080fd5b5b5b613250614835565b6132598a614331565b90508060000151816020015181915080905098509850505050505050509250929050565b6060806000606060006060806000606033600073ffffffffffffffffffffffffffffffffffffffff16600160008373ffffffffffffffffffffffffffffffffffffffff1673ffffffffffffffffffffffffffffffffffffffff16815260200190815260200160002060070160009054906101000a900473ffffffffffffffffffffffffffffffffffffffff1673ffffffffffffffffffffffffffffffffffffffff161161332957600080fd5b613331614673565b600160003373ffffffffffffffffffffffffffffffffffffffff1673ffffffffffffffffffffffffffffffffffffffff16815260200190815260200160002060405180610120016040529081600082018054600181600116156101000203166002900480601f0160208091040260200160405190810160405280929190818152602001828054600181600116156101000203166002900480156134155780601f106133ea57610100808354040283529160200191613415565b820191906000526020600020905b8154815290600101906020018083116133f857829003601f168201915b50505050508152602001600182018054600181600116156101000203166002900480601f0160208091040260200160405190810160405280929190818152602001828054600181600116156101000203166002900480156134b75780601f1061348c576101008083540402835291602001916134b7565b820191906000526020600020905b81548152906001019060200180831161349a57829003601f168201915b505050505081526020016002820160009054906101000a900460ff1660ff1660ff168152602001600382018054600181600116156101000203166002900480601f0160208091040260200160405190810160405280929190818152602001828054600181600116156101000203166002900480156135765780601f1061354b57610100808354040283529160200191613576565b820191906000526020600020905b81548152906001019060200180831161355957829003601f168201915b505050505081526020016004820160009054906101000a900463ffffffff1663ffffffff1663ffffffff168152602001600582018054600181600116156101000203166002900480601f01602080910402602001604051908101604052809291908181526020018280546001816001161561010002031660029004801561363e5780601f106136135761010080835404028352916020019161363e565b820191906000526020600020905b81548152906001019060200180831161362157829003601f168201915b50505050508152602001600682018054600181600116156101000203166002900480601f0160208091040260200160405190810160405280929190818152602001828054600181600116156101000203166002900480156136e05780601f106136b5576101008083540402835291602001916136e0565b820191906000526020600020905b8154815290600101906020018083116136c357829003601f168201915b505050505081526020016007820160009054906101000a900473ffffffffffffffffffffffffffffffffffffffff1673ffffffffffffffffffffffffffffffffffffffff1673ffffffffffffffffffffffffffffffffffffffff168152602001600882018054806020026020016040519081016040528092919081815260200182805480156137c457602002820191906000526020600020905b8160009054906101000a900473ffffffffffffffffffffffffffffffffffffffff1673ffffffffffffffffffffffffffffffffffffffff168152602001906001019080831161377a575b5050505050815250509050806000015181602001518260400151836060015184608001518560a001518660c001518760e001518861010001518898508797508595508393508292508090509a509a509a509a509a509a509a509a509a505050909192939495969798565b6060846060600560008381526020019081526020016000206000018054600181600116156101000203166002900480601f0160208091040260200160405190810160405280929190818152602001828054600181600116156101000203166002900480156138dd5780601f106138b2576101008083540402835291602001916138dd565b820191906000526020600020905b8154815290600101906020018083116138c057829003601f168201915b5050505050905060008151116138f257600080fd5b85858886600060405161390490615197565b60405180910390208560405160200161391d9190615156565b604051602081830303815290604052805190602001201415613a27576000600460008473ffffffffffffffffffffffffffffffffffffffff1673ffffffffffffffffffffffffffffffffffffffff16815260200190815260200160002060008673ffffffffffffffffffffffffffffffffffffffff1673ffffffffffffffffffffffffffffffffffffffff16815260200190815260200160002054116139c257600080fd5b600660008373ffffffffffffffffffffffffffffffffffffffff1673ffffffffffffffffffffffffffffffffffffffff168152602001908152602001600020600084815260200190815260200160002054905060008111613a2257600080fd5b613aca565b604051613a3390615182565b604051809103902085604051602001613a4c9190615156565b604051602081830303815290604052805190602001201415613ac957600660008573ffffffffffffffffffffffffffffffffffffffff1673ffffffffffffffffffffffffffffffffffffffff168152602001908152602001600020600084815260200190815260200160002054905060008111613ac857600080fd5b5b5b613ad2614835565b613adb8d614331565b9050806040015198505050505050505050949350505050565b6060600080606084600073ffffffffffffffffffffffffffffffffffffffff16600360008373ffffffffffffffffffffffffffffffffffffffff1673ffffffffffffffffffffffffffffffffffffffff16815260200190815260200160002060060160009054906101000a900473ffffffffffffffffffffffffffffffffffffffff1673ffffffffffffffffffffffffffffffffffffffff1611613b9757600080fd5b33600073ffffffffffffffffffffffffffffffffffffffff16600160008373ffffffffffffffffffffffffffffffffffffffff1673ffffffffffffffffffffffffffffffffffffffff16815260200190815260200160002060070160009054906101000a900473ffffffffffffffffffffffffffffffffffffffff1673ffffffffffffffffffffffffffffffffffffffff1611613c3357600080fd5b613c3b614608565b600360008973ffffffffffffffffffffffffffffffffffffffff1673ffffffffffffffffffffffffffffffffffffffff16815260200190815260200160002060405180610120016040529081600082018054600181600116156101000203166002900480601f016020809104026020016040519081016040528092919081815260200182805460018160011615610100020316600290048015613d1f5780601f10613cf457610100808354040283529160200191613d1f565b820191906000526020600020905b815481529060010190602001808311613d0257829003601f168201915b50505050508152602001600182018054600181600116156101000203166002900480601f016020809104026020016040519081016040528092919081815260200182805460018160011615610100020316600290048015613dc15780601f10613d9657610100808354040283529160200191613dc1565b820191906000526020600020905b815481529060010190602001808311613da457829003601f168201915b505050505081526020016002820160009054906101000a900460ff1660ff1660ff168152602001600382018054600181600116156101000203166002900480601f016020809104026020016040519081016040528092919081815260200182805460018160011615610100020316600290048015613e805780601f10613e5557610100808354040283529160200191613e80565b820191906000526020600020905b815481529060010190602001808311613e6357829003601f168201915b505050505081526020016004820160009054906101000a900463ffffffff1663ffffffff1663ffffffff168152602001600582018054600181600116156101000203166002900480601f016020809104026020016040519081016040528092919081815260200182805460018160011615610100020316600290048015613f485780601f10613f1d57610100808354040283529160200191613f48565b820191906000526020600020905b815481529060010190602001808311613f2b57829003601f168201915b505050505081526020016006820160009054906101000a900473ffffffffffffffffffffffffffffffffffffffff1673ffffffffffffffffffffffffffffffffffffffff1673ffffffffffffffffffffffffffffffffffffffff16815260200160078201805480602002602001604051908101604052809291908181526020018280548015613ff657602002820191906000526020600020905b815481526020019060010190808311613fe2575b505050505081526020016008820180548060200260200160405190810160405280929190818152602001828054801561408457602002820191906000526020600020905b8160009054906101000a900473ffffffffffffffffffffffffffffffffffffffff1673ffffffffffffffffffffffffffffffffffffffff168152602001906001019080831161403a575b5050505050815250509050806000015181604001518260c00151600760008c73ffffffffffffffffffffffffffffffffffffffff1673ffffffffffffffffffffffffffffffffffffffff16815260200190815260200160002083935080805480602002602001604051908101604052809291908181526020016000905b828210156143195783829060005260206000209060030201604051806060016040529081600082018054600181600116156101000203166002900480601f0160208091040260200160405190810160405280929190818152602001828054600181600116156101000203166002900480156141bd5780601f10614192576101008083540402835291602001916141bd565b820191906000526020600020905b8154815290600101906020018083116141a057829003601f168201915b50505050508152602001600182018054600181600116156101000203166002900480601f01602080910402602001604051908101604052809291908181526020018280546001816001161561010002031660029004801561425f5780601f106142345761010080835404028352916020019161425f565b820191906000526020600020905b81548152906001019060200180831161424257829003601f168201915b50505050508152602001600282018054600181600116156101000203166002900480601f0160208091040260200160405190810160405280929190818152602001828054600181600116156101000203166002900480156143015780601f106142d657610100808354040283529160200191614301565b820191906000526020600020905b8154815290600101906020018083116142e457829003601f168201915b50505050508152505081526020019060010190614101565b50505050905096509650965096505050509193509193565b614339614835565b816060600560008381526020019081526020016000206000018054600181600116156101000203166002900480601f0160208091040260200160405190810160405280929190818152602001828054600181600116156101000203166002900480156143e65780601f106143bb576101008083540402835291602001916143e6565b820191906000526020600020905b8154815290600101906020018083116143c957829003601f168201915b5050505050905060008151116143fb57600080fd5b60056000858152602001908152602001600020604051806060016040529081600082018054600181600116156101000203166002900480601f0160208091040260200160405190810160405280929190818152602001828054600181600116156101000203166002900480156144b25780601f10614487576101008083540402835291602001916144b2565b820191906000526020600020905b81548152906001019060200180831161449557829003601f168201915b50505050508152602001600182018054600181600116156101000203166002900480601f0160208091040260200160405190810160405280929190818152602001828054600181600116156101000203166002900480156145545780601f1061452957610100808354040283529160200191614554565b820191906000526020600020905b81548152906001019060200180831161453757829003601f168201915b50505050508152602001600282018054600181600116156101000203166002900480601f0160208091040260200160405190810160405280929190818152602001828054600181600116156101000203166002900480156145f65780601f106145cb576101008083540402835291602001916145f6565b820191906000526020600020905b8154815290600101906020018083116145d957829003601f168201915b50505050508152505092505050919050565b6040518061012001604052806060815260200160608152602001600060ff16815260200160608152602001600063ffffffff16815260200160608152602001600073ffffffffffffffffffffffffffffffffffffffff16815260200160608152602001606081525090565b6040518061012001604052806060815260200160608152602001600060ff16815260200160608152602001600063ffffffff1681526020016060815260200160608152602001600073ffffffffffffffffffffffffffffffffffffffff168152602001606081525090565b828054600181600116156101000203166002900490600052602060002090601f016020900481019282601f1061471f57805160ff191683800117855561474d565b8280016001018555821561474d579182015b8281111561474c578251825591602001919060010190614731565b5b50905061475a9190614856565b5090565b82805482825590600052602060002090810192821561479a579160200282015b8281111561479957825182559160200191906001019061477e565b5b5090506147a7919061487b565b5090565b828054828255906000526020600020908101928215614824579160200282015b828111156148235782518260006101000a81548173ffffffffffffffffffffffffffffffffffffffff021916908373ffffffffffffffffffffffffffffffffffffffff160217905550916020019190600101906147cb565b5b50905061483191906148a0565b5090565b60405180606001604052806060815260200160608152602001606081525090565b61487891905b8082111561487457600081600090555060010161485c565b5090565b90565b61489d91905b80821115614899576000816000905550600101614881565b5090565b90565b6148e091905b808211156148dc57600081816101000a81549073ffffffffffffffffffffffffffffffffffffffff0219169055506001016148a6565b5090565b90565b6000813590506148f2816155db565b92915050565b600081359050614907816155f2565b92915050565b600082601f83011261491e57600080fd5b813561493161492c82615415565b6153e8565b9150808252602083016020830185838301111561494d57600080fd5b614958838284615588565b50505092915050565b60008135905061497081615609565b92915050565b60008135905061498581615620565b92915050565b60006020828403121561499d57600080fd5b60006149ab848285016148e3565b91505092915050565b6000806000606084860312156149c957600080fd5b60006149d7868287016148e3565b93505060206149e8868287016148e3565b92505060406149f9868287016148f8565b9150509250925092565b60008060408385031215614a1657600080fd5b6000614a24858286016148e3565b9250506020614a35858286016148f8565b9150509250929050565b60008060008060808587031215614a5557600080fd5b6000614a63878288016148f8565b945050602085013567ffffffffffffffff811115614a8057600080fd5b614a8c8782880161490d565b9350506040614a9d878288016148e3565b9250506060614aae878288016148e3565b91505092959194509250565b60008060008060808587031215614ad057600080fd5b600085013567ffffffffffffffff811115614aea57600080fd5b614af68782880161490d565b945050602085013567ffffffffffffffff811115614b1357600080fd5b614b1f8782880161490d565b9350506040614b30878288016148f8565b925050606085013567ffffffffffffffff811115614b4d57600080fd5b614b598782880161490d565b91505092959194509250565b600080600060608486031215614b7a57600080fd5b600084013567ffffffffffffffff811115614b9457600080fd5b614ba08682870161490d565b935050602084013567ffffffffffffffff811115614bbd57600080fd5b614bc98682870161490d565b925050604084013567ffffffffffffffff811115614be657600080fd5b614bf28682870161490d565b9150509250925092565b60008060008060008060c08789031215614c1557600080fd5b600087013567ffffffffffffffff811115614c2f57600080fd5b614c3b89828a0161490d565b965050602087013567ffffffffffffffff811115614c5857600080fd5b614c6489828a0161490d565b9550506040614c7589828a01614976565b945050606087013567ffffffffffffffff811115614c9257600080fd5b614c9e89828a0161490d565b9350506080614caf89828a01614961565b92505060a087013567ffffffffffffffff811115614ccc57600080fd5b614cd889828a0161490d565b9150509295509295509295565b600080600080600080600060e0888a031215614d0057600080fd5b600088013567ffffffffffffffff811115614d1a57600080fd5b614d268a828b0161490d565b975050602088013567ffffffffffffffff811115614d4357600080fd5b614d4f8a828b0161490d565b9650506040614d608a828b01614976565b955050606088013567ffffffffffffffff811115614d7d57600080fd5b614d898a828b0161490d565b9450506080614d9a8a828b01614961565b93505060a088013567ffffffffffffffff811115614db757600080fd5b614dc38a828b0161490d565b92505060c088013567ffffffffffffffff811115614de057600080fd5b614dec8a828b0161490d565b91505092959891949750929550565b6000614e078383614e3f565b60208301905092915050565b6000614e1f8383614f8e565b60208301905092915050565b6000614e3783836150da565b905092915050565b614e488161552f565b82525050565b614e578161552f565b82525050565b6000614e6882615471565b614e7281856154cf565b9350614e7d83615441565b8060005b83811015614eae578151614e958882614dfb565b9750614ea0836154a8565b925050600181019050614e81565b5085935050505092915050565b6000614ec68261547c565b614ed081856154e0565b9350614edb83615451565b8060005b83811015614f0c578151614ef38882614e13565b9750614efe836154b5565b925050600181019050614edf565b5085935050505092915050565b6000614f2482615487565b614f2e81856154f1565b935083602082028501614f4085615461565b8060005b85811015614f7c5784840389528151614f5d8582614e2b565b9450614f68836154c2565b925060208a01995050600181019050614f44565b50829750879550505050505092915050565b614f9781615541565b82525050565b6000614fa88261549d565b614fb28185615513565b9350614fc2818560208601615597565b614fcb816155ca565b840191505092915050565b6000614fe18261549d565b614feb8185615524565b9350614ffb818560208601615597565b80840191505092915050565b600061501282615492565b61501c8185615502565b935061502c818560208601615597565b615035816155ca565b840191505092915050565b600061504d600083615524565b9150600082019050919050565b6000615067600783615524565b91507f70617469656e74000000000000000000000000000000000000000000000000006000830152600782019050919050565b60006150a7600683615524565b91507f646f63746f7200000000000000000000000000000000000000000000000000006000830152600682019050919050565b600060608301600083015184820360008601526150f78282615007565b915050602083015184820360208601526151118282615007565b9150506040830151848203604086015261512b8282615007565b9150508091505092915050565b6151418161556b565b82525050565b6151508161557b565b82525050565b60006151628284614fd6565b915081905092915050565b600061517882615040565b9150819050919050565b600061518d8261505a565b9150819050919050565b60006151a28261509a565b9150819050919050565b600060208201905081810360008301526151c68184614f19565b905092915050565b600060208201905081810360008301526151e88184614f9d565b905092915050565b6000604082019050818103600083015261520a8185614f9d565b9050818103602083015261521e8184614f9d565b90509392505050565b6000610120820190508181036000830152615242818c614f9d565b90508181036020830152615256818b614f9d565b9050615265604083018a615147565b81810360608301526152778189614f9d565b90506152866080830188615138565b81810360a08301526152988187614f9d565b90506152a760c0830186614e4e565b81810360e08301526152b98185614ebb565b90508181036101008301526152ce8184614e5d565b90509a9950505050505050505050565b60006101208201905081810360008301526152f9818c614f9d565b9050818103602083015261530d818b614f9d565b905061531c604083018a615147565b818103606083015261532e8189614f9d565b905061533d6080830188615138565b81810360a083015261534f8187614f9d565b905081810360c08301526153638186614f9d565b905061537260e0830185614e4e565b8181036101008301526153858184614e5d565b90509a9950505050505050505050565b600060808201905081810360008301526153af8187614f9d565b90506153be6020830186615147565b6153cb6040830185614e4e565b81810360608301526153dd8184614f19565b905095945050505050565b6000604051905081810181811067ffffffffffffffff8211171561540b57600080fd5b8060405250919050565b600067ffffffffffffffff82111561542c57600080fd5b601f19601f8301169050602081019050919050565b6000819050602082019050919050565b6000819050602082019050919050565b6000819050602082019050919050565b600081519050919050565b600081519050919050565b600081519050919050565b600081519050919050565b600081519050919050565b6000602082019050919050565b6000602082019050919050565b6000602082019050919050565b600082825260208201905092915050565b600082825260208201905092915050565b600082825260208201905092915050565b600082825260208201905092915050565b600082825260208201905092915050565b600081905092915050565b600061553a8261554b565b9050919050565b6000819050919050565b600073ffffffffffffffffffffffffffffffffffffffff82169050919050565b600063ffffffff82169050919050565b600060ff82169050919050565b82818337600083830152505050565b60005b838110156155b557808201518184015260208101905061559a565b838111156155c4576000848401525b50505050565b6000601f19601f8301169050919050565b6155e48161552f565b81146155ef57600080fd5b50565b6155fb81615541565b811461560657600080fd5b50565b6156128161556b565b811461561d57600080fd5b50565b6156298161557b565b811461563457600080fd5b5056fea365627a7a72315820589dd0251210dd2ad5df1374f251b191b46331e282d8171219ae59e677014d176c6578706572696d656e74616cf564736f6c63430005100040",
  "source": "// SPDX-License-Identifier: MIT\r\npragma solidity >=0.4.21 <0.7.0;\r\npragma experimental ABIEncoderV2;\r\n\r\ncontract optimized_healthCare {\r\n  address private owner;\r\n  mapping (address => doctor) private doctors;// doctor and list of patient profile he can access\r\n  mapping (address => mapping(address => uint)) private doctorToPatient;\r\n  mapping (address => patient) private patients;\r\n  mapping (address => mapping (address => uint)) private patientToDoctor;\r\n  mapping (bytes32 => filesInfo) private hashToFile; //filehash to file info\r\n  mapping (address => mapping (bytes32 => uint)) private patientToFile;\r\n  mapping (address => files[]) private patientFiles;\r\n  uint private gpos;\r\n  struct files{\r\n      string file_name;\r\n      string file_type;\r\n      string file_hash;\r\n  }\r\n  struct filesInfo {\r\n      string file_name;\r\n      string file_type;\r\n      string file_secret;\r\n  }\r\n  \r\n  struct patient {\r\n      string name;\r\n      string fatherName;\r\n      uint8 age;\r\n      string patAddress;\r\n      uint32 cnic;\r\n      string sex;\r\n      address id;\r\n      bytes32[] files;// hashes of file that belong to this user for display purpose\r\n      address[] doctor_list;\r\n  }\r\n  \r\n  struct doctor {\r\n      string name;\r\n      string fatherName;\r\n      uint8 age;\r\n      string docAddress;\r\n      uint32 cnic;\r\n      string sex;\r\n      string qualification;\r\n      address id;\r\n      address[] patient_list;\r\n  }\r\n  \r\n  constructor() public {\r\n    owner = msg.sender;\r\n  }\r\n  \r\n  modifier checkDoctor(address id) {\r\n    require(doctors[id].id > address(0x0));//check if doctor exist\r\n    _;\r\n  }\r\n  \r\n  modifier checkPatient(address id) {\r\n    require(patients[id].id > address(0x0));//check if patient exist\r\n    _;\r\n  }\r\n  \r\n  modifier onlyOwner() {\r\n    require(msg.sender == owner);\r\n    _;\r\n  }\r\n  \r\n  modifier checkFileAccess(string memory role, address id, bytes32 fileHashId, address pat) {\r\n    uint pos;\r\n    if(keccak256(abi.encodePacked(role)) == keccak256(\"doctor\")) {\r\n        require(patientToDoctor[pat][id] > 0);\r\n        pos = patientToFile[pat][fileHashId];\r\n        require(pos > 0);   \r\n    }\r\n    else if(keccak256(abi.encodePacked(role)) == keccak256(\"patient\")) {\r\n        pos = patientToFile[id][fileHashId];\r\n        require(pos > 0);\r\n    }\r\n    _; \r\n  }\r\n  \r\n  modifier checkFile(bytes32 fileHashId) {\r\n    bytes memory tempString = bytes(hashToFile[fileHashId].file_name);\r\n    require(tempString.length > 0);//check if file exist\r\n    _;\r\n  }\r\n\r\n  function signupPatient(string memory _name, string memory _fatherName, uint8 _age, string memory _patAddress, uint32 _cnic, string memory _sex) public {\r\n     patient memory p = patients[msg.sender];\r\n     require(keccak256(abi.encodePacked(_name)) != keccak256(\"\"));\r\n     require((_age > 0) && (_age < 100));\r\n     require(!(p.id > address(0x0)));\r\n\r\n     patients[msg.sender] = patient({name:_name, fatherName:_fatherName, age:_age, patAddress:_patAddress, cnic:_cnic, sex:_sex, id:msg.sender, files:new bytes32[](0), doctor_list:new address[](0)});\r\n  }\r\n  \r\n  function signupDoctor(string memory _name, string memory _fatherName, uint8 _age, string memory _docAddr, uint32 _cnic, string memory _sex, string memory _qualification ) public {\r\n      doctor memory d = doctors[msg.sender];\r\n      require(keccak256(abi.encodePacked(_name)) != keccak256(\"\"));\r\n      require(!(d.id > address(0x0)));\r\n\r\n      doctors[msg.sender] = doctor({name:_name, fatherName:_fatherName, age:_age, docAddress:_docAddr, cnic:_cnic, sex:_sex, qualification:_qualification, id:msg.sender, patient_list:new address[](0)});\r\n  }\r\n  \r\n  function grantAccessToDoctor(address doctor_id) public checkPatient(msg.sender) checkDoctor(doctor_id) {\r\n      patient storage p = patients[msg.sender];\r\n      doctor storage d = doctors[doctor_id];\r\n      require(patientToDoctor[msg.sender][doctor_id] < 1);// this means doctor already been access\r\n      \r\n      p.doctor_list.push(doctor_id);\r\n      uint pos = p.doctor_list.length - 1; // new length of array\r\n      gpos = pos;\r\n      patientToDoctor[msg.sender][doctor_id] = pos;\r\n      d.patient_list.push(msg.sender);\r\n  }\r\n  \r\n  function addFile(string memory _file_name, string memory _file_type, bytes32 _fileHash, string memory _file_secret) public checkPatient(msg.sender) {\r\n      patient storage p = patients[msg.sender];\r\n\r\n      require(patientToFile[msg.sender][_fileHash] < 1);\r\n      \r\n      hashToFile[_fileHash] = filesInfo({file_name:_file_name, file_type:_file_type,file_secret:_file_secret});\r\n      p.files.push(_fileHash);\r\n      uint pos = p.files.length - 1;\r\n      patientToFile[msg.sender][_fileHash] = pos;\r\n  } \r\nfunction addUserFiles(string memory _file_name, string memory _file_type,string memory _file_hash) public checkPatient(msg.sender){\r\n    \r\n    patientFiles[msg.sender].push(files({file_name:_file_name, file_type:_file_type,file_hash:_file_hash}));\r\n}\r\nfunction getUserFiles(address sender)public view returns(files[] memory){\r\n    return patientFiles[sender];\r\n}\r\n  function getPatientInfo() public view checkPatient(msg.sender) returns(string memory, string memory, uint8, string memory, uint32, string memory, address, bytes32[] memory , address[] memory) {\r\n      patient memory p = patients[msg.sender];\r\n      return (p.name, p.fatherName, p.age, p.patAddress, p.cnic, p.sex, p.id, p.files, p.doctor_list);\r\n  }\r\n  \r\n  function getDoctorInfo() public view checkDoctor(msg.sender) returns(string memory, string memory, uint8 ,string memory,uint32 ,string memory,string memory,address, address[] memory){\r\n      doctor memory d = doctors[msg.sender];\r\n      return (d.name, d.fatherName, d.age, d.docAddress, d.cnic, d.sex, d.qualification, d.id, d.patient_list);\r\n  }\r\n  \r\n  function checkProfile(address _user) public view onlyOwner returns(string memory, string memory){\r\n      patient memory p = patients[_user];\r\n      doctor memory d = doctors[_user];\r\n      \r\n      if(p.id > address(0x0))\r\n          return (p.name, 'patient');\r\n      else if(d.id > address(0x0))\r\n          return (d.name, 'doctor');\r\n      else\r\n          return ('', '');\r\n  }\r\n  \r\n  function getPatientInfoForDoctor(address pat) public view checkPatient(pat) checkDoctor(msg.sender) returns(string memory, uint8, address, files[] memory){\r\n      patient memory p = patients[pat];\r\n\r\n      //require(patientToDoctor[pat][msg.sender] > 0);\r\n\r\n      return (p.name, p.age, p.id, patientFiles[pat]);\r\n  }\r\n  \r\n  function getFileInfo(bytes32 fileHashId) private view checkFile(fileHashId) returns(filesInfo memory) {\r\n      return hashToFile[fileHashId];\r\n  }\r\n  \r\n  function getFileSecret(bytes32 fileHashId, string memory role, address id, address pat) public view \r\n  checkFile(fileHashId) checkFileAccess(role, id, fileHashId, pat)\r\n  returns(string memory) {\r\n      filesInfo memory f = getFileInfo(fileHashId);\r\n      return (f.file_secret);\r\n  }\r\n\r\n  function getFileInfoDoctor(address doc, address pat, bytes32 fileHashId) public view \r\n  onlyOwner checkPatient(pat) checkDoctor(doc) checkFileAccess(\"doctor\", doc, fileHashId, pat)\r\n  returns(string memory, string memory) {\r\n      filesInfo memory f = getFileInfo(fileHashId);\r\n      return (f.file_name, f.file_type);\r\n  }\r\n  \r\n  function getFileInfoPatient(address pat, bytes32 fileHashId) public view \r\n  onlyOwner checkPatient(pat) checkFileAccess(\"patient\", pat, fileHashId, pat) returns(string memory, string memory) {\r\n      filesInfo memory f = getFileInfo(fileHashId);\r\n      return (f.file_name, f.file_type);\r\n  }\r\n  \r\n}",
  "sourcePath": "C:\\Users\\shoaib\\Downloads\\Compressed\\Ethereum-EHR_Updated2\\Ethereum-EHR\\Ethereum-EHR\\contracts\\optimized_healthCare.sol",
  "compiler": {
    "name": "solc",
    "version": "0.5.16+commit.9c3226ce.Emscripten.clang"
  },
  "schemaVersion": "3.4.4",
  "updatedAt": "2022-07-21T08:42:54.591Z",
  "devdoc": {
    "methods": {}
  },
  "userdoc": {
    "methods": {}
  }
}